{
  "_format": "hh-sol-artifact-1",
  "contractName": "Event",
  "sourceName": "contracts/Events.sol",
  "abi": [
    {
      "inputs": [
        {
          "internalType": "address payable",
          "name": "_admin",
          "type": "address"
        }
      ],
      "stateMutability": "nonpayable",
      "type": "constructor"
    },
    {
      "anonymous": false,
      "inputs": [
        {
          "indexed": true,
          "internalType": "address",
          "name": "owner",
          "type": "address"
        },
        {
          "indexed": true,
          "internalType": "address",
          "name": "approved",
          "type": "address"
        },
        {
          "indexed": true,
          "internalType": "uint256",
          "name": "tokenId",
          "type": "uint256"
        }
      ],
      "name": "Approval",
      "type": "event"
    },
    {
      "anonymous": false,
      "inputs": [
        {
          "indexed": true,
          "internalType": "address",
          "name": "owner",
          "type": "address"
        },
        {
          "indexed": true,
          "internalType": "address",
          "name": "operator",
          "type": "address"
        },
        {
          "indexed": false,
          "internalType": "bool",
          "name": "approved",
          "type": "bool"
        }
      ],
      "name": "ApprovalForAll",
      "type": "event"
    },
    {
      "anonymous": false,
      "inputs": [
        {
          "indexed": true,
          "internalType": "address",
          "name": "previousOwner",
          "type": "address"
        },
        {
          "indexed": true,
          "internalType": "address",
          "name": "newOwner",
          "type": "address"
        }
      ],
      "name": "OwnershipTransferred",
      "type": "event"
    },
    {
      "anonymous": false,
      "inputs": [
        {
          "indexed": true,
          "internalType": "address",
          "name": "from",
          "type": "address"
        },
        {
          "indexed": true,
          "internalType": "address",
          "name": "to",
          "type": "address"
        },
        {
          "indexed": true,
          "internalType": "uint256",
          "name": "tokenId",
          "type": "uint256"
        }
      ],
      "name": "Transfer",
      "type": "event"
    },
    {
      "inputs": [
        {
          "internalType": "address",
          "name": "to",
          "type": "address"
        },
        {
          "internalType": "uint256",
          "name": "tokenId",
          "type": "uint256"
        }
      ],
      "name": "approve",
      "outputs": [],
      "stateMutability": "nonpayable",
      "type": "function"
    },
    {
      "inputs": [
        {
          "internalType": "address",
          "name": "owner",
          "type": "address"
        }
      ],
      "name": "balanceOf",
      "outputs": [
        {
          "internalType": "uint256",
          "name": "",
          "type": "uint256"
        }
      ],
      "stateMutability": "view",
      "type": "function"
    },
    {
      "inputs": [],
      "name": "count",
      "outputs": [
        {
          "internalType": "uint256",
          "name": "",
          "type": "uint256"
        }
      ],
      "stateMutability": "view",
      "type": "function"
    },
    {
      "inputs": [],
      "name": "eventCreator",
      "outputs": [
        {
          "internalType": "address",
          "name": "",
          "type": "address"
        }
      ],
      "stateMutability": "view",
      "type": "function"
    },
    {
      "inputs": [
        {
          "internalType": "uint256",
          "name": "tokenId",
          "type": "uint256"
        }
      ],
      "name": "getApproved",
      "outputs": [
        {
          "internalType": "address",
          "name": "",
          "type": "address"
        }
      ],
      "stateMutability": "view",
      "type": "function"
    },
    {
      "inputs": [
        {
          "internalType": "address",
          "name": "owner",
          "type": "address"
        },
        {
          "internalType": "address",
          "name": "operator",
          "type": "address"
        }
      ],
      "name": "isApprovedForAll",
      "outputs": [
        {
          "internalType": "bool",
          "name": "",
          "type": "bool"
        }
      ],
      "stateMutability": "view",
      "type": "function"
    },
    {
      "inputs": [
        {
          "internalType": "string",
          "name": "uri",
          "type": "string"
        }
      ],
      "name": "isTicketSold",
      "outputs": [
        {
          "internalType": "bool",
          "name": "",
          "type": "bool"
        }
      ],
      "stateMutability": "view",
      "type": "function"
    },
    {
      "inputs": [],
      "name": "name",
      "outputs": [
        {
          "internalType": "string",
          "name": "",
          "type": "string"
        }
      ],
      "stateMutability": "view",
      "type": "function"
    },
    {
      "inputs": [],
      "name": "owner",
      "outputs": [
        {
          "internalType": "address",
          "name": "",
          "type": "address"
        }
      ],
      "stateMutability": "view",
      "type": "function"
    },
    {
      "inputs": [
        {
          "internalType": "uint256",
          "name": "tokenId",
          "type": "uint256"
        }
      ],
      "name": "ownerOf",
      "outputs": [
        {
          "internalType": "address",
          "name": "",
          "type": "address"
        }
      ],
      "stateMutability": "view",
      "type": "function"
    },
    {
      "inputs": [
        {
          "internalType": "address",
          "name": "recipient",
          "type": "address"
        },
        {
          "internalType": "string",
          "name": "metadataURI",
          "type": "string"
        }
      ],
      "name": "payToMintTicket",
      "outputs": [
        {
          "internalType": "uint256",
          "name": "",
          "type": "uint256"
        }
      ],
      "stateMutability": "payable",
      "type": "function"
    },
    {
      "inputs": [],
      "name": "renounceOwnership",
      "outputs": [],
      "stateMutability": "nonpayable",
      "type": "function"
    },
    {
      "inputs": [
        {
          "internalType": "address",
          "name": "to",
          "type": "address"
        },
        {
          "internalType": "string",
          "name": "uri",
          "type": "string"
        }
      ],
      "name": "safeMint",
      "outputs": [],
      "stateMutability": "nonpayable",
      "type": "function"
    },
    {
      "inputs": [
        {
          "internalType": "address",
          "name": "from",
          "type": "address"
        },
        {
          "internalType": "address",
          "name": "to",
          "type": "address"
        },
        {
          "internalType": "uint256",
          "name": "tokenId",
          "type": "uint256"
        }
      ],
      "name": "safeTransferFrom",
      "outputs": [],
      "stateMutability": "nonpayable",
      "type": "function"
    },
    {
      "inputs": [
        {
          "internalType": "address",
          "name": "from",
          "type": "address"
        },
        {
          "internalType": "address",
          "name": "to",
          "type": "address"
        },
        {
          "internalType": "uint256",
          "name": "tokenId",
          "type": "uint256"
        },
        {
          "internalType": "bytes",
          "name": "_data",
          "type": "bytes"
        }
      ],
      "name": "safeTransferFrom",
      "outputs": [],
      "stateMutability": "nonpayable",
      "type": "function"
    },
    {
      "inputs": [
        {
          "internalType": "address",
          "name": "operator",
          "type": "address"
        },
        {
          "internalType": "bool",
          "name": "approved",
          "type": "bool"
        }
      ],
      "name": "setApprovalForAll",
      "outputs": [],
      "stateMutability": "nonpayable",
      "type": "function"
    },
    {
      "inputs": [
        {
          "internalType": "bytes4",
          "name": "interfaceId",
          "type": "bytes4"
        }
      ],
      "name": "supportsInterface",
      "outputs": [
        {
          "internalType": "bool",
          "name": "",
          "type": "bool"
        }
      ],
      "stateMutability": "view",
      "type": "function"
    },
    {
      "inputs": [],
      "name": "symbol",
      "outputs": [
        {
          "internalType": "string",
          "name": "",
          "type": "string"
        }
      ],
      "stateMutability": "view",
      "type": "function"
    },
    {
      "inputs": [
        {
          "internalType": "uint256",
          "name": "tokenId",
          "type": "uint256"
        }
      ],
      "name": "tokenURI",
      "outputs": [
        {
          "internalType": "string",
          "name": "",
          "type": "string"
        }
      ],
      "stateMutability": "view",
      "type": "function"
    },
    {
      "inputs": [
        {
          "internalType": "address",
          "name": "from",
          "type": "address"
        },
        {
          "internalType": "address",
          "name": "to",
          "type": "address"
        },
        {
          "internalType": "uint256",
          "name": "tokenId",
          "type": "uint256"
        }
      ],
      "name": "transferFrom",
      "outputs": [],
      "stateMutability": "nonpayable",
      "type": "function"
    },
    {
      "inputs": [
        {
          "internalType": "address",
          "name": "newOwner",
          "type": "address"
        }
      ],
      "name": "transferOwnership",
      "outputs": [],
      "stateMutability": "nonpayable",
      "type": "function"
    }
  ],
  "bytecode": "0x60806040523480156200001157600080fd5b506040516200392b3803806200392b8339818101604052810190620000379190620002d4565b6040518060400160405280600581526020017f4576656e740000000000000000000000000000000000000000000000000000008152506040518060400160405280600381526020017f4d544b00000000000000000000000000000000000000000000000000000000008152508160009080519060200190620000bb9291906200020d565b508060019080519060200190620000d49291906200020d565b505050620000f7620000eb6200013f60201b60201c565b6200014760201b60201c565b80600a60006101000a81548173ffffffffffffffffffffffffffffffffffffffff021916908373ffffffffffffffffffffffffffffffffffffffff16021790555050620003b3565b600033905090565b6000600760009054906101000a900473ffffffffffffffffffffffffffffffffffffffff16905081600760006101000a81548173ffffffffffffffffffffffffffffffffffffffff021916908373ffffffffffffffffffffffffffffffffffffffff1602179055508173ffffffffffffffffffffffffffffffffffffffff168173ffffffffffffffffffffffffffffffffffffffff167f8be0079c531659141344cd1fd0a4f28419497f9722a3daafe3b4186f6b6457e060405160405180910390a35050565b8280546200021b9062000334565b90600052602060002090601f0160209004810192826200023f57600085556200028b565b82601f106200025a57805160ff19168380011785556200028b565b828001600101855582156200028b579182015b828111156200028a5782518255916020019190600101906200026d565b5b5090506200029a91906200029e565b5090565b5b80821115620002b95760008160009055506001016200029f565b5090565b600081519050620002ce8162000399565b92915050565b600060208284031215620002e757600080fd5b6000620002f784828501620002bd565b91505092915050565b60006200030d8262000314565b9050919050565b600073ffffffffffffffffffffffffffffffffffffffff82169050919050565b600060028204905060018216806200034d57607f821691505b602082108114156200036457620003636200036a565b5b50919050565b7f4e487b7100000000000000000000000000000000000000000000000000000000600052602260045260246000fd5b620003a48162000300565b8114620003b057600080fd5b50565b61356880620003c36000396000f3fe60806040526004361061012a5760003560e01c806370a08231116100ab578063a22cb4651161006f578063a22cb465146103f9578063b88d4fde14610422578063c87b56dd1461044b578063d204c45e14610488578063e985e9c5146104b1578063f2fde38b146104ee5761012a565b806370a082311461031f578063715018a61461035c5780638da5cb5b1461037357806391b3ed841461039e57806395d89b41146103ce5761012a565b806323b872dd116100f257806323b872dd146102285780632e92e8511461025157806342842e0e1461028e5780634ec82aac146102b75780636352211e146102e25761012a565b806301ffc9a71461012f57806306661abd1461016c57806306fdde0314610197578063081812fc146101c2578063095ea7b3146101ff575b600080fd5b34801561013b57600080fd5b50610156600480360381019061015191906123e7565b610517565b60405161016391906128d1565b60405180910390f35b34801561017857600080fd5b506101816105f9565b60405161018e9190612b8e565b60405180910390f35b3480156101a357600080fd5b506101ac61060a565b6040516101b991906128ec565b60405180910390f35b3480156101ce57600080fd5b506101e960048036038101906101e4919061247a565b61069c565b6040516101f6919061286a565b60405180910390f35b34801561020b57600080fd5b50610226600480360381019061022191906123ab565b610721565b005b34801561023457600080fd5b5061024f600480360381019061024a9190612251565b610839565b005b34801561025d57600080fd5b5061027860048036038101906102739190612439565b610899565b60405161028591906128d1565b60405180910390f35b34801561029a57600080fd5b506102b560048036038101906102b09190612251565b6108ce565b005b3480156102c357600080fd5b506102cc6108ee565b6040516102d9919061286a565b60405180910390f35b3480156102ee57600080fd5b506103096004803603810190610304919061247a565b610914565b604051610316919061286a565b60405180910390f35b34801561032b57600080fd5b50610346600480360381019061034191906121ec565b6109c6565b6040516103539190612b8e565b60405180910390f35b34801561036857600080fd5b50610371610a7e565b005b34801561037f57600080fd5b50610388610b06565b604051610395919061286a565b60405180910390f35b6103b860048036038101906103b39190612357565b610b30565b6040516103c59190612b8e565b60405180910390f35b3480156103da57600080fd5b506103e3610cbe565b6040516103f091906128ec565b60405180910390f35b34801561040557600080fd5b50610420600480360381019061041b919061231b565b610d50565b005b34801561042e57600080fd5b50610449600480360381019061044491906122a0565b610d66565b005b34801561045757600080fd5b50610472600480360381019061046d919061247a565b610dc8565b60405161047f91906128ec565b60405180910390f35b34801561049457600080fd5b506104af60048036038101906104aa9190612357565b610dda565b005b3480156104bd57600080fd5b506104d860048036038101906104d39190612215565b610e87565b6040516104e591906128d1565b60405180910390f35b3480156104fa57600080fd5b50610515600480360381019061051091906121ec565b610f1b565b005b60007f80ac58cd000000000000000000000000000000000000000000000000000000007bffffffffffffffffffffffffffffffffffffffffffffffffffffffff1916827bffffffffffffffffffffffffffffffffffffffffffffffffffffffff191614806105e257507f5b5e139f000000000000000000000000000000000000000000000000000000007bffffffffffffffffffffffffffffffffffffffffffffffffffffffff1916827bffffffffffffffffffffffffffffffffffffffffffffffffffffffff1916145b806105f257506105f182611013565b5b9050919050565b6000610605600861107d565b905090565b60606000805461061990612de4565b80601f016020809104026020016040519081016040528092919081815260200182805461064590612de4565b80156106925780601f1061066757610100808354040283529160200191610692565b820191906000526020600020905b81548152906001019060200180831161067557829003601f168201915b5050505050905090565b60006106a78261108b565b6106e6576040517f08c379a00000000000000000000000000000000000000000000000000000000081526004016106dd90612aee565b60405180910390fd5b6004600083815260200190815260200160002060009054906101000a900473ffffffffffffffffffffffffffffffffffffffff169050919050565b600061072c82610914565b90508073ffffffffffffffffffffffffffffffffffffffff168373ffffffffffffffffffffffffffffffffffffffff16141561079d576040517f08c379a000000000000000000000000000000000000000000000000000000000815260040161079490612b4e565b60405180910390fd5b8073ffffffffffffffffffffffffffffffffffffffff166107bc6110f7565b73ffffffffffffffffffffffffffffffffffffffff1614806107eb57506107ea816107e56110f7565b610e87565b5b61082a576040517f08c379a000000000000000000000000000000000000000000000000000000000815260040161082190612a0e565b60405180910390fd5b61083483836110ff565b505050565b61084a6108446110f7565b826111b8565b610889576040517f08c379a000000000000000000000000000000000000000000000000000000000815260040161088090612b6e565b60405180910390fd5b610894838383611296565b505050565b6000600c826040516108ab919061282f565b908152602001604051809103902060009054906101000a900460ff169050919050565b6108e983838360405180602001604052806000815250610d66565b505050565b600b60009054906101000a900473ffffffffffffffffffffffffffffffffffffffff1681565b6000806002600084815260200190815260200160002060009054906101000a900473ffffffffffffffffffffffffffffffffffffffff169050600073ffffffffffffffffffffffffffffffffffffffff168173ffffffffffffffffffffffffffffffffffffffff1614156109bd576040517f08c379a00000000000000000000000000000000000000000000000000000000081526004016109b490612a4e565b60405180910390fd5b80915050919050565b60008073ffffffffffffffffffffffffffffffffffffffff168273ffffffffffffffffffffffffffffffffffffffff161415610a37576040517f08c379a0000000000000000000000000000000000000000000000000000000008152600401610a2e90612a2e565b60405180910390fd5b600360008373ffffffffffffffffffffffffffffffffffffffff1673ffffffffffffffffffffffffffffffffffffffff168152602001908152602001600020549050919050565b610a866110f7565b73ffffffffffffffffffffffffffffffffffffffff16610aa4610b06565b73ffffffffffffffffffffffffffffffffffffffff1614610afa576040517f08c379a0000000000000000000000000000000000000000000000000000000008152600401610af190612b0e565b60405180910390fd5b610b0460006114fd565b565b6000600760009054906101000a900473ffffffffffffffffffffffffffffffffffffffff16905090565b6000600c82604051610b42919061282f565b908152602001604051809103902060009054906101000a900460ff1615610b9e576040517f08c379a0000000000000000000000000000000000000000000000000000000008152600401610b9590612a8e565b60405180910390fd5b678ac7230489e800003414610be8576040517f08c379a0000000000000000000000000000000000000000000000000000000008152600401610bdf9061298e565b60405180910390fd5b600a60009054906101000a900473ffffffffffffffffffffffffffffffffffffffff1673ffffffffffffffffffffffffffffffffffffffff166108fc349081150290604051600060405180830381858888f19350505050158015610c50573d6000803e3d6000fd5b506000610c5d600861107d565b9050610c6960086115c3565b6001600c84604051610c7b919061282f565b908152602001604051809103902060006101000a81548160ff021916908315150217905550610caa84826115d9565b610cb481846117b3565b8091505092915050565b606060018054610ccd90612de4565b80601f0160208091040260200160405190810160405280929190818152602001828054610cf990612de4565b8015610d465780601f10610d1b57610100808354040283529160200191610d46565b820191906000526020600020905b815481529060010190602001808311610d2957829003601f168201915b5050505050905090565b610d62610d5b6110f7565b8383611827565b5050565b610d77610d716110f7565b836111b8565b610db6576040517f08c379a0000000000000000000000000000000000000000000000000000000008152600401610dad90612b6e565b60405180910390fd5b610dc284848484611994565b50505050565b6060610dd3826119f0565b9050919050565b610de26110f7565b73ffffffffffffffffffffffffffffffffffffffff16610e00610b06565b73ffffffffffffffffffffffffffffffffffffffff1614610e56576040517f08c379a0000000000000000000000000000000000000000000000000000000008152600401610e4d90612b0e565b60405180910390fd5b6000610e62600861107d565b9050610e6e60086115c3565b610e788382611b42565b610e8281836117b3565b505050565b6000600560008473ffffffffffffffffffffffffffffffffffffffff1673ffffffffffffffffffffffffffffffffffffffff16815260200190815260200160002060008373ffffffffffffffffffffffffffffffffffffffff1673ffffffffffffffffffffffffffffffffffffffff16815260200190815260200160002060009054906101000a900460ff16905092915050565b610f236110f7565b73ffffffffffffffffffffffffffffffffffffffff16610f41610b06565b73ffffffffffffffffffffffffffffffffffffffff1614610f97576040517f08c379a0000000000000000000000000000000000000000000000000000000008152600401610f8e90612b0e565b60405180910390fd5b600073ffffffffffffffffffffffffffffffffffffffff168173ffffffffffffffffffffffffffffffffffffffff161415611007576040517f08c379a0000000000000000000000000000000000000000000000000000000008152600401610ffe9061292e565b60405180910390fd5b611010816114fd565b50565b60007f01ffc9a7000000000000000000000000000000000000000000000000000000007bffffffffffffffffffffffffffffffffffffffffffffffffffffffff1916827bffffffffffffffffffffffffffffffffffffffffffffffffffffffff1916149050919050565b600081600001549050919050565b60008073ffffffffffffffffffffffffffffffffffffffff166002600084815260200190815260200160002060009054906101000a900473ffffffffffffffffffffffffffffffffffffffff1673ffffffffffffffffffffffffffffffffffffffff1614159050919050565b600033905090565b816004600083815260200190815260200160002060006101000a81548173ffffffffffffffffffffffffffffffffffffffff021916908373ffffffffffffffffffffffffffffffffffffffff160217905550808273ffffffffffffffffffffffffffffffffffffffff1661117283610914565b73ffffffffffffffffffffffffffffffffffffffff167f8c5be1e5ebec7d5bd14f71427d1e84f3dd0314c0f7b2291e5b200ac8c7c3b92560405160405180910390a45050565b60006111c38261108b565b611202576040517f08c379a00000000000000000000000000000000000000000000000000000000081526004016111f9906129ee565b60405180910390fd5b600061120d83610914565b90508073ffffffffffffffffffffffffffffffffffffffff168473ffffffffffffffffffffffffffffffffffffffff16148061124f575061124e8185610e87565b5b8061128d57508373ffffffffffffffffffffffffffffffffffffffff166112758461069c565b73ffffffffffffffffffffffffffffffffffffffff16145b91505092915050565b8273ffffffffffffffffffffffffffffffffffffffff166112b682610914565b73ffffffffffffffffffffffffffffffffffffffff161461130c576040517f08c379a00000000000000000000000000000000000000000000000000000000081526004016113039061294e565b60405180910390fd5b600073ffffffffffffffffffffffffffffffffffffffff168273ffffffffffffffffffffffffffffffffffffffff16141561137c576040517f08c379a0000000000000000000000000000000000000000000000000000000008152600401611373906129ae565b60405180910390fd5b611387838383611b60565b6113926000826110ff565b6001600360008573ffffffffffffffffffffffffffffffffffffffff1673ffffffffffffffffffffffffffffffffffffffff16815260200190815260200160002060008282546113e29190612cfa565b925050819055506001600360008473ffffffffffffffffffffffffffffffffffffffff1673ffffffffffffffffffffffffffffffffffffffff16815260200190815260200160002060008282546114399190612c73565b92505081905550816002600083815260200190815260200160002060006101000a81548173ffffffffffffffffffffffffffffffffffffffff021916908373ffffffffffffffffffffffffffffffffffffffff160217905550808273ffffffffffffffffffffffffffffffffffffffff168473ffffffffffffffffffffffffffffffffffffffff167fddf252ad1be2c89b69c2b068fc378daa952ba7f163c4a11628f55a4df523b3ef60405160405180910390a46114f8838383611b65565b505050565b6000600760009054906101000a900473ffffffffffffffffffffffffffffffffffffffff16905081600760006101000a81548173ffffffffffffffffffffffffffffffffffffffff021916908373ffffffffffffffffffffffffffffffffffffffff1602179055508173ffffffffffffffffffffffffffffffffffffffff168173ffffffffffffffffffffffffffffffffffffffff167f8be0079c531659141344cd1fd0a4f28419497f9722a3daafe3b4186f6b6457e060405160405180910390a35050565b6001816000016000828254019250508190555050565b600073ffffffffffffffffffffffffffffffffffffffff168273ffffffffffffffffffffffffffffffffffffffff161415611649576040517f08c379a000000000000000000000000000000000000000000000000000000000815260040161164090612aae565b60405180910390fd5b6116528161108b565b15611692576040517f08c379a00000000000000000000000000000000000000000000000000000000081526004016116899061296e565b60405180910390fd5b61169e60008383611b60565b6001600360008473ffffffffffffffffffffffffffffffffffffffff1673ffffffffffffffffffffffffffffffffffffffff16815260200190815260200160002060008282546116ee9190612c73565b92505081905550816002600083815260200190815260200160002060006101000a81548173ffffffffffffffffffffffffffffffffffffffff021916908373ffffffffffffffffffffffffffffffffffffffff160217905550808273ffffffffffffffffffffffffffffffffffffffff16600073ffffffffffffffffffffffffffffffffffffffff167fddf252ad1be2c89b69c2b068fc378daa952ba7f163c4a11628f55a4df523b3ef60405160405180910390a46117af60008383611b65565b5050565b6117bc8261108b565b6117fb576040517f08c379a00000000000000000000000000000000000000000000000000000000081526004016117f290612a6e565b60405180910390fd5b80600660008481526020019081526020016000209080519060200190611822929190612010565b505050565b8173ffffffffffffffffffffffffffffffffffffffff168373ffffffffffffffffffffffffffffffffffffffff161415611896576040517f08c379a000000000000000000000000000000000000000000000000000000000815260040161188d906129ce565b60405180910390fd5b80600560008573ffffffffffffffffffffffffffffffffffffffff1673ffffffffffffffffffffffffffffffffffffffff16815260200190815260200160002060008473ffffffffffffffffffffffffffffffffffffffff1673ffffffffffffffffffffffffffffffffffffffff16815260200190815260200160002060006101000a81548160ff0219169083151502179055508173ffffffffffffffffffffffffffffffffffffffff168373ffffffffffffffffffffffffffffffffffffffff167f17307eab39ab6107e8899845ad3d59bd9653f200f220920489ca2b5937696c318360405161198791906128d1565b60405180910390a3505050565b61199f848484611296565b6119ab84848484611b6a565b6119ea576040517f08c379a00000000000000000000000000000000000000000000000000000000081526004016119e19061290e565b60405180910390fd5b50505050565b60606119fb8261108b565b611a3a576040517f08c379a0000000000000000000000000000000000000000000000000000000008152600401611a3190612ace565b60405180910390fd5b6000600660008481526020019081526020016000208054611a5a90612de4565b80601f0160208091040260200160405190810160405280929190818152602001828054611a8690612de4565b8015611ad35780601f10611aa857610100808354040283529160200191611ad3565b820191906000526020600020905b815481529060010190602001808311611ab657829003601f168201915b505050505090506000611ae4611d01565b9050600081511415611afa578192505050611b3d565b600082511115611b2f578082604051602001611b17929190612846565b60405160208183030381529060405292505050611b3d565b611b3884611d3e565b925050505b919050565b611b5c828260405180602001604052806000815250611de5565b5050565b505050565b505050565b6000611b8b8473ffffffffffffffffffffffffffffffffffffffff16611e40565b15611cf4578373ffffffffffffffffffffffffffffffffffffffff1663150b7a02611bb46110f7565b8786866040518563ffffffff1660e01b8152600401611bd69493929190612885565b602060405180830381600087803b158015611bf057600080fd5b505af1925050508015611c2157506040513d601f19601f82011682018060405250810190611c1e9190612410565b60015b611ca4573d8060008114611c51576040519150601f19603f3d011682016040523d82523d6000602084013e611c56565b606091505b50600081511415611c9c576040517f08c379a0000000000000000000000000000000000000000000000000000000008152600401611c939061290e565b60405180910390fd5b805181602001fd5b63150b7a0260e01b7bffffffffffffffffffffffffffffffffffffffffffffffffffffffff1916817bffffffffffffffffffffffffffffffffffffffffffffffffffffffff191614915050611cf9565b600190505b949350505050565b60606040518060400160405280600781526020017f697066733a2f2f00000000000000000000000000000000000000000000000000815250905090565b6060611d498261108b565b611d88576040517f08c379a0000000000000000000000000000000000000000000000000000000008152600401611d7f90612b2e565b60405180910390fd5b6000611d92611d01565b90506000815111611db25760405180602001604052806000815250611ddd565b80611dbc84611e63565b604051602001611dcd929190612846565b6040516020818303038152906040525b915050919050565b611def83836115d9565b611dfc6000848484611b6a565b611e3b576040517f08c379a0000000000000000000000000000000000000000000000000000000008152600401611e329061290e565b60405180910390fd5b505050565b6000808273ffffffffffffffffffffffffffffffffffffffff163b119050919050565b60606000821415611eab576040518060400160405280600181526020017f3000000000000000000000000000000000000000000000000000000000000000815250905061200b565b600082905060005b60008214611edd578080611ec690612e47565b915050600a82611ed69190612cc9565b9150611eb3565b60008167ffffffffffffffff811115611f1f577f4e487b7100000000000000000000000000000000000000000000000000000000600052604160045260246000fd5b6040519080825280601f01601f191660200182016040528015611f515781602001600182028036833780820191505090505b5090505b6000851461200457600182611f6a9190612cfa565b9150600a85611f799190612e90565b6030611f859190612c73565b60f81b818381518110611fc1577f4e487b7100000000000000000000000000000000000000000000000000000000600052603260045260246000fd5b60200101907effffffffffffffffffffffffffffffffffffffffffffffffffffffffffffff1916908160001a905350600a85611ffd9190612cc9565b9450611f55565b8093505050505b919050565b82805461201c90612de4565b90600052602060002090601f01602090048101928261203e5760008555612085565b82601f1061205757805160ff1916838001178555612085565b82800160010185558215612085579182015b82811115612084578251825591602001919060010190612069565b5b5090506120929190612096565b5090565b5b808211156120af576000816000905550600101612097565b5090565b60006120c66120c184612bce565b612ba9565b9050828152602081018484840111156120de57600080fd5b6120e9848285612da2565b509392505050565b60006121046120ff84612bff565b612ba9565b90508281526020810184848401111561211c57600080fd5b612127848285612da2565b509392505050565b60008135905061213e816134d6565b92915050565b600081359050612153816134ed565b92915050565b60008135905061216881613504565b92915050565b60008151905061217d81613504565b92915050565b600082601f83011261219457600080fd5b81356121a48482602086016120b3565b91505092915050565b600082601f8301126121be57600080fd5b81356121ce8482602086016120f1565b91505092915050565b6000813590506121e68161351b565b92915050565b6000602082840312156121fe57600080fd5b600061220c8482850161212f565b91505092915050565b6000806040838503121561222857600080fd5b60006122368582860161212f565b92505060206122478582860161212f565b9150509250929050565b60008060006060848603121561226657600080fd5b60006122748682870161212f565b93505060206122858682870161212f565b9250506040612296868287016121d7565b9150509250925092565b600080600080608085870312156122b657600080fd5b60006122c48782880161212f565b94505060206122d58782880161212f565b93505060406122e6878288016121d7565b925050606085013567ffffffffffffffff81111561230357600080fd5b61230f87828801612183565b91505092959194509250565b6000806040838503121561232e57600080fd5b600061233c8582860161212f565b925050602061234d85828601612144565b9150509250929050565b6000806040838503121561236a57600080fd5b60006123788582860161212f565b925050602083013567ffffffffffffffff81111561239557600080fd5b6123a1858286016121ad565b9150509250929050565b600080604083850312156123be57600080fd5b60006123cc8582860161212f565b92505060206123dd858286016121d7565b9150509250929050565b6000602082840312156123f957600080fd5b600061240784828501612159565b91505092915050565b60006020828403121561242257600080fd5b60006124308482850161216e565b91505092915050565b60006020828403121561244b57600080fd5b600082013567ffffffffffffffff81111561246557600080fd5b612471848285016121ad565b91505092915050565b60006020828403121561248c57600080fd5b600061249a848285016121d7565b91505092915050565b6124ac81612d2e565b82525050565b6124bb81612d40565b82525050565b60006124cc82612c30565b6124d68185612c46565b93506124e6818560208601612db1565b6124ef81612f7d565b840191505092915050565b600061250582612c3b565b61250f8185612c57565b935061251f818560208601612db1565b61252881612f7d565b840191505092915050565b600061253e82612c3b565b6125488185612c68565b9350612558818560208601612db1565b80840191505092915050565b6000612571603283612c57565b915061257c82612f8e565b604082019050919050565b6000612594602683612c57565b915061259f82612fdd565b604082019050919050565b60006125b7602583612c57565b91506125c28261302c565b604082019050919050565b60006125da601c83612c57565b91506125e58261307b565b602082019050919050565b60006125fd601383612c57565b9150612608826130a4565b602082019050919050565b6000612620602483612c57565b915061262b826130cd565b604082019050919050565b6000612643601983612c57565b915061264e8261311c565b602082019050919050565b6000612666602c83612c57565b915061267182613145565b604082019050919050565b6000612689603883612c57565b915061269482613194565b604082019050919050565b60006126ac602a83612c57565b91506126b7826131e3565b604082019050919050565b60006126cf602983612c57565b91506126da82613232565b604082019050919050565b60006126f2602e83612c57565b91506126fd82613281565b604082019050919050565b6000612715601683612c57565b9150612720826132d0565b602082019050919050565b6000612738602083612c57565b9150612743826132f9565b602082019050919050565b600061275b603183612c57565b915061276682613322565b604082019050919050565b600061277e602c83612c57565b915061278982613371565b604082019050919050565b60006127a1602083612c57565b91506127ac826133c0565b602082019050919050565b60006127c4602f83612c57565b91506127cf826133e9565b604082019050919050565b60006127e7602183612c57565b91506127f282613438565b604082019050919050565b600061280a603183612c57565b915061281582613487565b604082019050919050565b61282981612d98565b82525050565b600061283b8284612533565b915081905092915050565b60006128528285612533565b915061285e8284612533565b91508190509392505050565b600060208201905061287f60008301846124a3565b92915050565b600060808201905061289a60008301876124a3565b6128a760208301866124a3565b6128b46040830185612820565b81810360608301526128c681846124c1565b905095945050505050565b60006020820190506128e660008301846124b2565b92915050565b6000602082019050818103600083015261290681846124fa565b905092915050565b6000602082019050818103600083015261292781612564565b9050919050565b6000602082019050818103600083015261294781612587565b9050919050565b60006020820190508181036000830152612967816125aa565b9050919050565b60006020820190508181036000830152612987816125cd565b9050919050565b600060208201905081810360008301526129a7816125f0565b9050919050565b600060208201905081810360008301526129c781612613565b9050919050565b600060208201905081810360008301526129e781612636565b9050919050565b60006020820190508181036000830152612a0781612659565b9050919050565b60006020820190508181036000830152612a278161267c565b9050919050565b60006020820190508181036000830152612a478161269f565b9050919050565b60006020820190508181036000830152612a67816126c2565b9050919050565b60006020820190508181036000830152612a87816126e5565b9050919050565b60006020820190508181036000830152612aa781612708565b9050919050565b60006020820190508181036000830152612ac78161272b565b9050919050565b60006020820190508181036000830152612ae78161274e565b9050919050565b60006020820190508181036000830152612b0781612771565b9050919050565b60006020820190508181036000830152612b2781612794565b9050919050565b60006020820190508181036000830152612b47816127b7565b9050919050565b60006020820190508181036000830152612b67816127da565b9050919050565b60006020820190508181036000830152612b87816127fd565b9050919050565b6000602082019050612ba36000830184612820565b92915050565b6000612bb3612bc4565b9050612bbf8282612e16565b919050565b6000604051905090565b600067ffffffffffffffff821115612be957612be8612f4e565b5b612bf282612f7d565b9050602081019050919050565b600067ffffffffffffffff821115612c1a57612c19612f4e565b5b612c2382612f7d565b9050602081019050919050565b600081519050919050565b600081519050919050565b600082825260208201905092915050565b600082825260208201905092915050565b600081905092915050565b6000612c7e82612d98565b9150612c8983612d98565b9250827fffffffffffffffffffffffffffffffffffffffffffffffffffffffffffffffff03821115612cbe57612cbd612ec1565b5b828201905092915050565b6000612cd482612d98565b9150612cdf83612d98565b925082612cef57612cee612ef0565b5b828204905092915050565b6000612d0582612d98565b9150612d1083612d98565b925082821015612d2357612d22612ec1565b5b828203905092915050565b6000612d3982612d78565b9050919050565b60008115159050919050565b60007fffffffff0000000000000000000000000000000000000000000000000000000082169050919050565b600073ffffffffffffffffffffffffffffffffffffffff82169050919050565b6000819050919050565b82818337600083830152505050565b60005b83811015612dcf578082015181840152602081019050612db4565b83811115612dde576000848401525b50505050565b60006002820490506001821680612dfc57607f821691505b60208210811415612e1057612e0f612f1f565b5b50919050565b612e1f82612f7d565b810181811067ffffffffffffffff82111715612e3e57612e3d612f4e565b5b80604052505050565b6000612e5282612d98565b91507fffffffffffffffffffffffffffffffffffffffffffffffffffffffffffffffff821415612e8557612e84612ec1565b5b600182019050919050565b6000612e9b82612d98565b9150612ea683612d98565b925082612eb657612eb5612ef0565b5b828206905092915050565b7f4e487b7100000000000000000000000000000000000000000000000000000000600052601160045260246000fd5b7f4e487b7100000000000000000000000000000000000000000000000000000000600052601260045260246000fd5b7f4e487b7100000000000000000000000000000000000000000000000000000000600052602260045260246000fd5b7f4e487b7100000000000000000000000000000000000000000000000000000000600052604160045260246000fd5b6000601f19601f8301169050919050565b7f4552433732313a207472616e7366657220746f206e6f6e20455243373231526560008201527f63656976657220696d706c656d656e7465720000000000000000000000000000602082015250565b7f4f776e61626c653a206e6577206f776e657220697320746865207a65726f206160008201527f6464726573730000000000000000000000000000000000000000000000000000602082015250565b7f4552433732313a207472616e736665722066726f6d20696e636f72726563742060008201527f6f776e6572000000000000000000000000000000000000000000000000000000602082015250565b7f4552433732313a20746f6b656e20616c7265616479206d696e74656400000000600082015250565b7f596f75206e65656420746f207061792031302100000000000000000000000000600082015250565b7f4552433732313a207472616e7366657220746f20746865207a65726f2061646460008201527f7265737300000000000000000000000000000000000000000000000000000000602082015250565b7f4552433732313a20617070726f766520746f2063616c6c657200000000000000600082015250565b7f4552433732313a206f70657261746f7220717565727920666f72206e6f6e657860008201527f697374656e7420746f6b656e0000000000000000000000000000000000000000602082015250565b7f4552433732313a20617070726f76652063616c6c6572206973206e6f74206f7760008201527f6e6572206e6f7220617070726f76656420666f7220616c6c0000000000000000602082015250565b7f4552433732313a2062616c616e636520717565727920666f7220746865207a6560008201527f726f206164647265737300000000000000000000000000000000000000000000602082015250565b7f4552433732313a206f776e657220717565727920666f72206e6f6e657869737460008201527f656e7420746f6b656e0000000000000000000000000000000000000000000000602082015250565b7f45524337323155524953746f726167653a2055524920736574206f66206e6f6e60008201527f6578697374656e7420746f6b656e000000000000000000000000000000000000602082015250565b7f7469636b657420616c7265616479206d696e7465642100000000000000000000600082015250565b7f4552433732313a206d696e7420746f20746865207a65726f2061646472657373600082015250565b7f45524337323155524953746f726167653a2055524920717565727920666f722060008201527f6e6f6e6578697374656e7420746f6b656e000000000000000000000000000000602082015250565b7f4552433732313a20617070726f76656420717565727920666f72206e6f6e657860008201527f697374656e7420746f6b656e0000000000000000000000000000000000000000602082015250565b7f4f776e61626c653a2063616c6c6572206973206e6f7420746865206f776e6572600082015250565b7f4552433732314d657461646174613a2055524920717565727920666f72206e6f60008201527f6e6578697374656e7420746f6b656e0000000000000000000000000000000000602082015250565b7f4552433732313a20617070726f76616c20746f2063757272656e74206f776e6560008201527f7200000000000000000000000000000000000000000000000000000000000000602082015250565b7f4552433732313a207472616e736665722063616c6c6572206973206e6f74206f60008201527f776e6572206e6f7220617070726f766564000000000000000000000000000000602082015250565b6134df81612d2e565b81146134ea57600080fd5b50565b6134f681612d40565b811461350157600080fd5b50565b61350d81612d4c565b811461351857600080fd5b50565b61352481612d98565b811461352f57600080fd5b5056fea26469706673582212208e9038a225abd24ba5569f68eb8b3b326bf1280242eebf605c1217f61d84e9c264736f6c63430008040033",
  "linkReferences": {},
  "deployedLinkReferences": {}
}